{
  "_format": "hh3-artifact-1",
  "contractName": "SimpleYieldFarm",
  "sourceName": "contracts/SimpleYieldFarm.sol",
  "abi": [
    {
      "inputs": [
        {
          "internalType": "address",
          "name": "_stakingToken",
          "type": "address"
        }
      ],
      "stateMutability": "nonpayable",
      "type": "constructor"
    },
    {
      "inputs": [
        {
          "internalType": "address",
          "name": "owner",
          "type": "address"
        }
      ],
      "name": "OwnableInvalidOwner",
      "type": "error"
    },
    {
      "inputs": [
        {
          "internalType": "address",
          "name": "account",
          "type": "address"
        }
      ],
      "name": "OwnableUnauthorizedAccount",
      "type": "error"
    },
    {
      "inputs": [],
      "name": "ReentrancyGuardReentrantCall",
      "type": "error"
    },
    {
      "anonymous": false,
      "inputs": [
        {
          "indexed": true,
          "internalType": "address",
          "name": "user",
          "type": "address"
        },
        {
          "indexed": false,
          "internalType": "uint256",
          "name": "amount",
          "type": "uint256"
        }
      ],
      "name": "Deposited",
      "type": "event"
    },
    {
      "anonymous": false,
      "inputs": [
        {
          "indexed": true,
          "internalType": "address",
          "name": "previousOwner",
          "type": "address"
        },
        {
          "indexed": true,
          "internalType": "address",
          "name": "newOwner",
          "type": "address"
        }
      ],
      "name": "OwnershipTransferred",
      "type": "event"
    },
    {
      "anonymous": false,
      "inputs": [
        {
          "indexed": true,
          "internalType": "address",
          "name": "user",
          "type": "address"
        },
        {
          "indexed": false,
          "internalType": "uint256",
          "name": "principal",
          "type": "uint256"
        },
        {
          "indexed": false,
          "internalType": "uint256",
          "name": "reward",
          "type": "uint256"
        }
      ],
      "name": "Withdrawn",
      "type": "event"
    },
    {
      "inputs": [
        {
          "internalType": "address",
          "name": "",
          "type": "address"
        }
      ],
      "name": "balances",
      "outputs": [
        {
          "internalType": "uint256",
          "name": "",
          "type": "uint256"
        }
      ],
      "stateMutability": "view",
      "type": "function"
    },
    {
      "inputs": [
        {
          "internalType": "uint256",
          "name": "amount",
          "type": "uint256"
        }
      ],
      "name": "deposit",
      "outputs": [],
      "stateMutability": "nonpayable",
      "type": "function"
    },
    {
      "inputs": [],
      "name": "getContractBalance",
      "outputs": [
        {
          "internalType": "uint256",
          "name": "",
          "type": "uint256"
        }
      ],
      "stateMutability": "view",
      "type": "function"
    },
    {
      "inputs": [
        {
          "internalType": "address",
          "name": "",
          "type": "address"
        }
      ],
      "name": "lastClaimTime",
      "outputs": [
        {
          "internalType": "uint256",
          "name": "",
          "type": "uint256"
        }
      ],
      "stateMutability": "view",
      "type": "function"
    },
    {
      "inputs": [],
      "name": "owner",
      "outputs": [
        {
          "internalType": "address",
          "name": "",
          "type": "address"
        }
      ],
      "stateMutability": "view",
      "type": "function"
    },
    {
      "inputs": [
        {
          "internalType": "address",
          "name": "user",
          "type": "address"
        }
      ],
      "name": "pendingReward",
      "outputs": [
        {
          "internalType": "uint256",
          "name": "",
          "type": "uint256"
        }
      ],
      "stateMutability": "view",
      "type": "function"
    },
    {
      "inputs": [],
      "name": "renounceOwnership",
      "outputs": [],
      "stateMutability": "nonpayable",
      "type": "function"
    },
    {
      "inputs": [],
      "name": "rewardRate",
      "outputs": [
        {
          "internalType": "uint256",
          "name": "",
          "type": "uint256"
        }
      ],
      "stateMutability": "view",
      "type": "function"
    },
    {
      "inputs": [
        {
          "internalType": "uint256",
          "name": "_newRate",
          "type": "uint256"
        }
      ],
      "name": "setRewardRate",
      "outputs": [],
      "stateMutability": "nonpayable",
      "type": "function"
    },
    {
      "inputs": [],
      "name": "stakingToken",
      "outputs": [
        {
          "internalType": "contract IERC20",
          "name": "",
          "type": "address"
        }
      ],
      "stateMutability": "view",
      "type": "function"
    },
    {
      "inputs": [],
      "name": "totalStaked",
      "outputs": [
        {
          "internalType": "uint256",
          "name": "",
          "type": "uint256"
        }
      ],
      "stateMutability": "view",
      "type": "function"
    },
    {
      "inputs": [
        {
          "internalType": "address",
          "name": "newOwner",
          "type": "address"
        }
      ],
      "name": "transferOwnership",
      "outputs": [],
      "stateMutability": "nonpayable",
      "type": "function"
    },
    {
      "inputs": [
        {
          "internalType": "uint256",
          "name": "amount",
          "type": "uint256"
        }
      ],
      "name": "withdraw",
      "outputs": [],
      "stateMutability": "nonpayable",
      "type": "function"
    },
    {
      "inputs": [],
      "name": "withdrawAll",
      "outputs": [],
      "stateMutability": "nonpayable",
      "type": "function"
    }
  ],
  "bytecode": "0x6080604052670de0b6b3a764000060035534801561001b575f5ffd5b50604051611717380380611717833981810160405281019061003d919061029a565b3360015f819055505f73ffffffffffffffffffffffffffffffffffffffff168173ffffffffffffffffffffffffffffffffffffffff16036100b5575f6040517f1e4fbdf70000000000000000000000000000000000000000000000000000000081526004016100ac91906102d4565b60405180910390fd5b6100c48161017960201b60201c565b505f73ffffffffffffffffffffffffffffffffffffffff168173ffffffffffffffffffffffffffffffffffffffff1603610133576040517f08c379a000000000000000000000000000000000000000000000000000000000815260040161012a90610347565b60405180910390fd5b8060025f6101000a81548173ffffffffffffffffffffffffffffffffffffffff021916908373ffffffffffffffffffffffffffffffffffffffff16021790555050610365565b5f60015f9054906101000a900473ffffffffffffffffffffffffffffffffffffffff1690508160015f6101000a81548173ffffffffffffffffffffffffffffffffffffffff021916908373ffffffffffffffffffffffffffffffffffffffff1602179055508173ffffffffffffffffffffffffffffffffffffffff168173ffffffffffffffffffffffffffffffffffffffff167f8be0079c531659141344cd1fd0a4f28419497f9722a3daafe3b4186f6b6457e060405160405180910390a35050565b5f5ffd5b5f73ffffffffffffffffffffffffffffffffffffffff82169050919050565b5f61026982610240565b9050919050565b6102798161025f565b8114610283575f5ffd5b50565b5f8151905061029481610270565b92915050565b5f602082840312156102af576102ae61023c565b5b5f6102bc84828501610286565b91505092915050565b6102ce8161025f565b82525050565b5f6020820190506102e75f8301846102c5565b92915050565b5f82825260208201905092915050565b7f496e76616c696420746f6b656e000000000000000000000000000000000000005f82015250565b5f610331600d836102ed565b915061033c826102fd565b602082019050919050565b5f6020820190508181035f83015261035e81610325565b9050919050565b6113a5806103725f395ff3fe608060405234801561000f575f5ffd5b50600436106100e8575f3560e01c8063853828b61161008a578063b6b55f2511610064578063b6b55f25146101fe578063b77cf9c61461021a578063f2fde38b1461024a578063f40f0f5214610266576100e8565b8063853828b6146101ba5780638da5cb5b146101c45780639e447fc6146101e2576100e8565b8063715018a6116100c6578063715018a61461015657806372f702f3146101605780637b0a47ee1461017e578063817b1cd21461019c576100e8565b806327e235e3146100ec5780632e1a7d4d1461011c5780636f9fb98a14610138575b5f5ffd5b61010660048036038101906101019190610d7e565b610296565b6040516101139190610dc1565b60405180910390f35b61013660048036038101906101319190610e04565b6102ab565b005b6101406102b8565b60405161014d9190610dc1565b60405180910390f35b61015e610357565b005b61016861036a565b6040516101759190610e8a565b60405180910390f35b61018661038f565b6040516101939190610dc1565b60405180910390f35b6101a4610395565b6040516101b19190610dc1565b60405180910390f35b6101c261039b565b005b6101cc61042b565b6040516101d99190610eb2565b60405180910390f35b6101fc60048036038101906101f79190610e04565b610453565b005b61021860048036038101906102139190610e04565b610465565b005b610234600480360381019061022f9190610d7e565b610659565b6040516102419190610dc1565b60405180910390f35b610264600480360381019061025f9190610d7e565b61066e565b005b610280600480360381019061027b9190610d7e565b6106f2565b60405161028d9190610dc1565b60405180910390f35b6004602052805f5260405f205f915090505481565b6102b53382610703565b50565b5f60025f9054906101000a900473ffffffffffffffffffffffffffffffffffffffff1673ffffffffffffffffffffffffffffffffffffffff166370a08231306040518263ffffffff1660e01b81526004016103139190610eb2565b602060405180830381865afa15801561032e573d5f5f3e3d5ffd5b505050506040513d601f19601f820116820180604052508101906103529190610edf565b905090565b61035f610941565b6103685f6109c8565b565b60025f9054906101000a900473ffffffffffffffffffffffffffffffffffffffff1681565b60035481565b60065481565b5f60045f3373ffffffffffffffffffffffffffffffffffffffff1673ffffffffffffffffffffffffffffffffffffffff1681526020019081526020015f205490505f811161041e576040517f08c379a000000000000000000000000000000000000000000000000000000000815260040161041590610f64565b60405180910390fd5b6104283382610703565b50565b5f60015f9054906101000a900473ffffffffffffffffffffffffffffffffffffffff16905090565b61045b610941565b8060038190555050565b61046d610a8b565b5f81116104af576040517f08c379a00000000000000000000000000000000000000000000000000000000081526004016104a690610fcc565b60405180910390fd5b6104b833610acf565b60025f9054906101000a900473ffffffffffffffffffffffffffffffffffffffff1673ffffffffffffffffffffffffffffffffffffffff166323b872dd3330846040518463ffffffff1660e01b815260040161051693929190610fea565b6020604051808303815f875af1158015610532573d5f5f3e3d5ffd5b505050506040513d601f19601f820116820180604052508101906105569190611054565b610595576040517f08c379a000000000000000000000000000000000000000000000000000000000815260040161058c906110c9565b60405180910390fd5b8060045f3373ffffffffffffffffffffffffffffffffffffffff1673ffffffffffffffffffffffffffffffffffffffff1681526020019081526020015f205f8282546105e19190611114565b925050819055508060065f8282546105f99190611114565b925050819055503373ffffffffffffffffffffffffffffffffffffffff167f2da466a7b24304f47e87fa2e1e5a81b9831ce54fec19055ce277ca2f39ba42c4826040516106469190610dc1565b60405180910390a2610656610c05565b50565b6005602052805f5260405f205f915090505481565b610676610941565b5f73ffffffffffffffffffffffffffffffffffffffff168173ffffffffffffffffffffffffffffffffffffffff16036106e6575f6040517f1e4fbdf70000000000000000000000000000000000000000000000000000000081526004016106dd9190610eb2565b60405180910390fd5b6106ef816109c8565b50565b5f6106fc82610c0e565b9050919050565b61070b610a8b565b5f81118015610757575060045f8373ffffffffffffffffffffffffffffffffffffffff1673ffffffffffffffffffffffffffffffffffffffff1681526020019081526020015f20548111155b610796576040517f08c379a000000000000000000000000000000000000000000000000000000000815260040161078d90611191565b60405180910390fd5b61079f82610acf565b8060045f8473ffffffffffffffffffffffffffffffffffffffff1673ffffffffffffffffffffffffffffffffffffffff1681526020019081526020015f205f8282546107eb91906111af565b925050819055508060065f82825461080391906111af565b9250508190555060025f9054906101000a900473ffffffffffffffffffffffffffffffffffffffff1673ffffffffffffffffffffffffffffffffffffffff1663a9059cbb83836040518363ffffffff1660e01b81526004016108669291906111e2565b6020604051808303815f875af1158015610882573d5f5f3e3d5ffd5b505050506040513d601f19601f820116820180604052508101906108a69190611054565b6108e5576040517f08c379a00000000000000000000000000000000000000000000000000000000081526004016108dc906110c9565b60405180910390fd5b8173ffffffffffffffffffffffffffffffffffffffff167f92ccf450a286a957af52509bc1c9939d1a6a481783e142e41e2499f0bb66ebc6825f60405161092d929190611242565b60405180910390a261093d610c05565b5050565b610949610d19565b73ffffffffffffffffffffffffffffffffffffffff1661096761042b565b73ffffffffffffffffffffffffffffffffffffffff16146109c65761098a610d19565b6040517f118cdaa70000000000000000000000000000000000000000000000000000000081526004016109bd9190610eb2565b60405180910390fd5b565b5f60015f9054906101000a900473ffffffffffffffffffffffffffffffffffffffff1690508160015f6101000a81548173ffffffffffffffffffffffffffffffffffffffff021916908373ffffffffffffffffffffffffffffffffffffffff1602179055508173ffffffffffffffffffffffffffffffffffffffff168173ffffffffffffffffffffffffffffffffffffffff167f8be0079c531659141344cd1fd0a4f28419497f9722a3daafe3b4186f6b6457e060405160405180910390a35050565b60025f5403610ac6576040517f3ee5aeb500000000000000000000000000000000000000000000000000000000815260040160405180910390fd5b60025f81905550565b5f610ad982610c0e565b90505f811115610bbf5760025f9054906101000a900473ffffffffffffffffffffffffffffffffffffffff1673ffffffffffffffffffffffffffffffffffffffff1663a9059cbb83836040518363ffffffff1660e01b8152600401610b3f9291906111e2565b6020604051808303815f875af1158015610b5b573d5f5f3e3d5ffd5b505050506040513d601f19601f82011682018060405250810190610b7f9190611054565b610bbe576040517f08c379a0000000000000000000000000000000000000000000000000000000008152600401610bb5906112b3565b60405180910390fd5b5b4260055f8473ffffffffffffffffffffffffffffffffffffffff1673ffffffffffffffffffffffffffffffffffffffff1681526020019081526020015f20819055505050565b60015f81905550565b5f5f60045f8473ffffffffffffffffffffffffffffffffffffffff1673ffffffffffffffffffffffffffffffffffffffff1681526020019081526020015f205403610c5b575f9050610d14565b5f60055f8473ffffffffffffffffffffffffffffffffffffffff1673ffffffffffffffffffffffffffffffffffffffff1681526020019081526020015f205442610ca591906111af565b9050670de0b6b3a76400006003548260045f8773ffffffffffffffffffffffffffffffffffffffff1673ffffffffffffffffffffffffffffffffffffffff1681526020019081526020015f2054610cfc91906112d1565b610d0691906112d1565b610d10919061133f565b9150505b919050565b5f33905090565b5f5ffd5b5f73ffffffffffffffffffffffffffffffffffffffff82169050919050565b5f610d4d82610d24565b9050919050565b610d5d81610d43565b8114610d67575f5ffd5b50565b5f81359050610d7881610d54565b92915050565b5f60208284031215610d9357610d92610d20565b5b5f610da084828501610d6a565b91505092915050565b5f819050919050565b610dbb81610da9565b82525050565b5f602082019050610dd45f830184610db2565b92915050565b610de381610da9565b8114610ded575f5ffd5b50565b5f81359050610dfe81610dda565b92915050565b5f60208284031215610e1957610e18610d20565b5b5f610e2684828501610df0565b91505092915050565b5f819050919050565b5f610e52610e4d610e4884610d24565b610e2f565b610d24565b9050919050565b5f610e6382610e38565b9050919050565b5f610e7482610e59565b9050919050565b610e8481610e6a565b82525050565b5f602082019050610e9d5f830184610e7b565b92915050565b610eac81610d43565b82525050565b5f602082019050610ec55f830184610ea3565b92915050565b5f81519050610ed981610dda565b92915050565b5f60208284031215610ef457610ef3610d20565b5b5f610f0184828501610ecb565b91505092915050565b5f82825260208201905092915050565b7f4e6f2062616c616e6365000000000000000000000000000000000000000000005f82015250565b5f610f4e600a83610f0a565b9150610f5982610f1a565b602082019050919050565b5f6020820190508181035f830152610f7b81610f42565b9050919050565b7f416d6f756e74206d757374206265203e203000000000000000000000000000005f82015250565b5f610fb6601283610f0a565b9150610fc182610f82565b602082019050919050565b5f6020820190508181035f830152610fe381610faa565b9050919050565b5f606082019050610ffd5f830186610ea3565b61100a6020830185610ea3565b6110176040830184610db2565b949350505050565b5f8115159050919050565b6110338161101f565b811461103d575f5ffd5b50565b5f8151905061104e8161102a565b92915050565b5f6020828403121561106957611068610d20565b5b5f61107684828501611040565b91505092915050565b7f5472616e73666572206661696c656400000000000000000000000000000000005f82015250565b5f6110b3600f83610f0a565b91506110be8261107f565b602082019050919050565b5f6020820190508181035f8301526110e0816110a7565b9050919050565b7f4e487b71000000000000000000000000000000000000000000000000000000005f52601160045260245ffd5b5f61111e82610da9565b915061112983610da9565b9250828201905080821115611141576111406110e7565b5b92915050565b7f496e76616c696420616d6f756e740000000000000000000000000000000000005f82015250565b5f61117b600e83610f0a565b915061118682611147565b602082019050919050565b5f6020820190508181035f8301526111a88161116f565b9050919050565b5f6111b982610da9565b91506111c483610da9565b92508282039050818111156111dc576111db6110e7565b5b92915050565b5f6040820190506111f55f830185610ea3565b6112026020830184610db2565b9392505050565b5f819050919050565b5f61122c61122761122284611209565b610e2f565b610da9565b9050919050565b61123c81611212565b82525050565b5f6040820190506112555f830185610db2565b6112626020830184611233565b9392505050565b7f526577617264207472616e73666572206661696c6564000000000000000000005f82015250565b5f61129d601683610f0a565b91506112a882611269565b602082019050919050565b5f6020820190508181035f8301526112ca81611291565b9050919050565b5f6112db82610da9565b91506112e683610da9565b92508282026112f481610da9565b9150828204841483151761130b5761130a6110e7565b5b5092915050565b7f4e487b71000000000000000000000000000000000000000000000000000000005f52601260045260245ffd5b5f61134982610da9565b915061135483610da9565b92508261136457611363611312565b5b82820490509291505056fea2646970667358221220fe4be18d3770831b18538119df02d5943fc8235f174401877e71c599414cb58864736f6c634300081c0033",
  "linkReferences": {},
  "deployedLinkReferences": {},
  "immutableReferences": {},
  "inputSourceName": "project/contracts/SimpleYieldFarm.sol",
  "buildInfoId": "solc-0_8_28-e9dee8c8f3517e07580f6bfae16965c2ab2248fd"
}